{
  "contractName": "PingPong",
  "abi": [
    {
      "inputs": [],
      "stateMutability": "nonpayable",
      "type": "constructor"
    },
    {
      "anonymous": false,
      "inputs": [],
      "name": "Ping",
      "type": "event"
    },
    {
      "anonymous": false,
      "inputs": [
        {
          "indexed": false,
          "internalType": "bytes32",
          "name": "txHash",
          "type": "bytes32"
        }
      ],
      "name": "Pong",
      "type": "event"
    },
    {
      "inputs": [],
      "name": "pinger",
      "outputs": [
        {
          "internalType": "address",
          "name": "",
          "type": "address"
        }
      ],
      "stateMutability": "view",
      "type": "function",
      "constant": true
    },
    {
      "inputs": [],
      "name": "ping",
      "outputs": [],
      "stateMutability": "nonpayable",
      "type": "function"
    },
    {
      "inputs": [
        {
          "internalType": "bytes32",
          "name": "_txHash",
          "type": "bytes32"
        }
      ],
      "name": "pong",
      "outputs": [],
      "stateMutability": "nonpayable",
      "type": "function"
    }
  ],
  "bytecode": "0x608060405234801561001057600080fd5b50336000806101000a81548173ffffffffffffffffffffffffffffffffffffffff021916908373ffffffffffffffffffffffffffffffffffffffff16021790555061033c806100606000396000f3fe608060405234801561001057600080fd5b50600436106100415760003560e01c806305ba79a2146100465780635c36b18614610062578063b97399f51461006c575b600080fd5b610060600480360381019061005b91906101b9565b61008a565b005b61006a6100c4565b005b610074610180565b6040516100819190610223565b60405180910390f35b7f67050610046771547cf1d6e467b904ccfc523370eebc895dad1d9a73349b9804816040516100b9919061023e565b60405180910390a150565b60008054906101000a900473ffffffffffffffffffffffffffffffffffffffff1673ffffffffffffffffffffffffffffffffffffffff163373ffffffffffffffffffffffffffffffffffffffff1614610152576040517f08c379a000000000000000000000000000000000000000000000000000000000815260040161014990610259565b60405180910390fd5b7fca6e822df923f741dfe968d15d80a18abd25bd1e748bcb9ad81fea5bbb7386af60405160405180910390a1565b60008054906101000a900473ffffffffffffffffffffffffffffffffffffffff1681565b6000813590506101b3816102ef565b92915050565b6000602082840312156101cb57600080fd5b60006101d9848285016101a4565b91505092915050565b6101eb8161028a565b82525050565b6101fa8161029c565b82525050565b600061020d601e83610279565b9150610218826102c6565b602082019050919050565b600060208201905061023860008301846101e2565b92915050565b600060208201905061025360008301846101f1565b92915050565b6000602082019050818103600083015261027281610200565b9050919050565b600082825260208201905092915050565b6000610295826102a6565b9050919050565b6000819050919050565b600073ffffffffffffffffffffffffffffffffffffffff82169050919050565b7f4f6e6c79207468652070696e6765722063616e2063616c6c20746869732e0000600082015250565b6102f88161029c565b811461030357600080fd5b5056fea2646970667358221220df4791cdc5f77b4ff619fa92ff85b94f131af865ddc914441ef71f3ef535623e64736f6c63430008010033",
  "immutableReferences": {},
  "source": "/**\n *Submitted for verification at Etherscan.io on 2022-02-23\n*/\n\n// SPDX-License-Identifier: GPL-3.0\n/**\n *  @authors: [@mtsalenc]\n *  @reviewers: []\n *  @auditors: []\n *  @bounties: []\n *  @deployments: []\n */\n\npragma solidity >= 0.8.1;\n\n/**\n * @title PingPong\n * @dev Exercise on syncing and transaction submission.\n */\ncontract PingPong {\n\n    address public pinger;\n\n    constructor() {\n        pinger = msg.sender;\n    }\n\n    event Ping();\n    event Pong(bytes32 txHash);\n\n    function ping() external {\n        require(msg.sender == pinger, \"Only the pinger can call this.\");\n\n        emit Ping();\n    }\n\n    function pong(bytes32 _txHash) external {\n        emit Pong(_txHash);\n    }\n}",
  "sourcePath": "/Users/remyrica/code/private/kleros-project/backend-bot-sync/contracts/PingPong.sol",
  "compiler": {
    "name": "solc",
    "version": "0.8.1+commit.df193b15.Emscripten.clang"
  },
  "schemaVersion": "3.4.4",
  "updatedAt": "2022-06-24T11:39:47.156Z",
  "networkType": "ethereum",
  "devdoc": {
    "details": "Exercise on syncing and transaction submission.",
    "kind": "dev",
    "methods": {},
    "title": "PingPong",
    "version": 1
  },
  "userdoc": {
    "kind": "user",
    "methods": {},
    "version": 1
  }
}